:030000000208E211
:0C08E200787FE4F6D8FD75810E02084115
:0F08B70048454C4C4F2045564552594F4E450031
:10084100E4F5A07F381208C61208A87F011208C675
:100851001208A87F101208C61208A87F0C1208C639
:100861001208A87F811208C61208A87BFF7A0879AE
:0A087100B77D0E7C0012080080C95C
:0A0800008B088A09890A8C0B8D0C05
:10080A00E4F50DF50EC3E50E950CE50B6480F8E5ED
:10081A000D6480985020AB08AA09A90A850E828522
:10082A000D8312087BFF1208D41208A8050EE50EE4
:06083A0070D3050D80CF14
:010840002295
:0E08C6008FA0C290C291D2921208A8C29222B4
:0E08D4008FA0D290C291D2921208A8C2922296
:0E08A800E4FFFE0FBF00010EBE2EF8BFE0F50C
:0108B600221F
:10087B00BB010CE58229F582E5833AF583E0225032
:10088B0006E92582F8E622BBFE06E92582F8E2227C
:0D089B00E58229F582E5833AF583E4932296
:00000001FF
