:0300000002089E55
:0C089E00787FE4F6D8FD75810902087F20
:10080000E4F508F50912085875900212085B759016
:100810000412085B75900812085B0509E50970026F
:0B0820000508C394E8E508940340DAE3
:01082B0022AA
:10082C00E4F508F50975900812085B759004120838
:10083C005B75900212085B1208580509E5097002F5
:0B084C000508C394E8E508940340DAB7
:01085700227E
:10087F00E4F5901208007F647E0012085FE4F590A3
:0F088F0012082C7F647E0012085FE4F59080E46D
:070858007590017F057E0091
:10085F00E4FDFCC3ED9FEC9E5015E4FBFA0BBB00CF
:0F086F00010ABA03F8BB84F50DBD00010C80E44B
:01087E002257
:00000001FF
