:030000000208A74C
:0C08A700787FE4F6D8FD75810702080098
:10088A00E4FFFEE4FDFC0DBD00010CBC01F8BDF463
:0C089A00F50FBF00010EEF64C84E70E7C0
:0108A600222F
:0E086A00C294D2B0C296C297D2B3C2B1C2B28B
:10087800E4FBFA12088A0BBB00010AEB64194A7000
:01088800F27D
:01088900224C
:10080000E4F5B0C292D290C291D295C29312086A16
:10081000C290D29112088AD292C290C291C295D24D
:100820009312086AC293D29412088AD292C290C2DA
:1008300091D295C293C294C2B0D296120870C29659
:10084000D29712088AD292C290C291D295C293C214
:1008500094D2B0C296C297C2B3D2B1C2B2120878D3
:0A086000C2B1D2B212088A020803E6
:00000001FF
